:020000040800F2
:100000000007002001010008491F0008131D000817
:10001000411E00082D0700086125000800000000AF
:100020000000000000000000000000008D1F00081C
:100030002F070008000000006B1F0008792000084F
:100040001B0100081B0100081B0100081B01000820
:100050001B0100081B0100081B0100081B01000810
:100060001B0100081B0100081B0100081B01000800
:100070001B0100081B0100081B0100081B010008F0
:100080001B0100081B010008210700081B010008D4
:100090001B0100081B0100081B0100081B010008D0
:1000A0001B0100081B0100081B0100081B010008C0
:1000B0001B010008512100085D2100081B010008F8
:1000C0001B0100081B0100081B0100081B010008A0
:1000D0001B01000849250008552500081B010008E0
:1000E0001B0100081B0100081B010008DFF80CD0F1
:1000F00000F004FB00480047C1250008000700206D
:100100000648804706480047FEE7FEE7FEE7FEE7B1
:10011000FEE7FEE7FEE7FEE7FEE7FEE7092100084F
:10012000ED000008202A04DB203A21FA02F0002129
:10013000704721FA02F3D040C2F1200291400843F7
:1001400019467047F0B480EA0102D40F4200B2EBC6
:10015000410F02D20246084611464A0042D0C30D62
:10016000DDB2C1F3C752AD1A202D35DAC1F3160145
:1001700041F4000204B15242C5F1200602FA06F130
:100180002A411044B3EBD05F23D0C4B1012DA0EBC2
:10019000C35009DCF0BC4FF0004202EAC352DBB2AC
:1001A00000F5000000F01EBA400000F1807000EB86
:1001B000C350A0F1807040EAD170490009E04908BD
:1001C00041EAC071A0EBC35000F50000400800EB0D
:1001D000C350F0BC00F0FDB96142012202EB4101C5
:1001E000001BF6E7F0BC704781F00041AAE780F001
:1001F0000040A7E780EA010210B502F0004340008A
:1002000022D04A001FD0010E01EB1261C0F356004C
:10021000C2F3560240F4000042F40002A0FB0220A8
:1002200000047F39140400D0401C50EA124001D46D
:100230004000491EC2B20C0604EBD010401C40081E
:10024000802A02D003E0002010BD20F00100002928
:1002500000DA0020184310BD30B480EA010202F039
:10026000004530F0004221F0004013D090B1C30DA2
:10027000D40DC2F31601C0F31600E41A41F40001D4
:1002800040F400027D34914201D3641C00E0490037
:10029000002C02DA30BC002070474FF4000000232D
:1002A000914201D3891A034340084FEA4101F7D133
:1002B00051B1914202D14FF0004105E002D24FF01E
:1002C000010101E06FF0010103EBC450284430BC90
:1002D00000F07FB92DE9FE4F804681EA0300C00F90
:1002E0000C46009021F0004123F00045B8EB0200DD
:1002F000A94105D24046214690461C460B4602467F
:1003000023F00040104347D0270DC7F30A00C3F382
:100310000A510290401A019040286BDAC3F313008F
:1003200040F4801B0098924620B10023D2EB030AD0
:1003300063EB0B0B01985946C0F14002504600F0A8
:1003400027F906460D4650465946019A00F02FF906
:1003500010EB08006141002487EA115284EAE77338
:100360001A4340D0009A62B3019A012A4FEA075219
:1003700015DC001B61EB02014FF0004202EA07525C
:10038000CDE90042001C41F5801132462B4600F0B9
:1003900066F903B0BDE8F08F40462146F9E7001B3F
:1003A00061EB0201001C41F5801300185B4120182D
:1003B000A2F5001747EB030140EAD570B6196D416D
:1003C00011E06D084FEA360645EAC0754FEA07525C
:1003D000001B61EB0201001C41F5801149084FEA46
:1003E00030000019514132462B4603B0BDE8F04FB2
:1003F00000F026B90098012240000023D0EB020251
:1004000063EBE073009821464FEAE074B8EB00001C
:1004100061EB0401E9E783F000435BE781F0004111
:1004200058E72DE9FE4F81EA030404F0004421F06F
:10043000004100944FF0000B23F0004350EA010408
:100440005ED052EA03045BD0C3F30A54C1F30A55E9
:100450002C44A4F2F3340194A0FB0254C1F3130121
:1004600041F48011C3F3130343F4801301FB0244EE
:1004700000FB034E840A970A44EA815447EA8357F3
:10048000A4FB076802958D0A05FB07854FEA932CAC
:1004900004FB0C542705029D4FEA065847EA16371D
:1004A000B5EB08056EEB070C870E920E47EA811735
:1004B00042EA8312A7FB0201B6EB0B0164EB0004D6
:1004C0002B0D43EA0C335E1844EB1C50DA465146C0
:1004D000E7FB0201C5F313044FEA0B3343EA14535D
:1004E0004FEA0432019C43EA0603A4F10C0402948F
:1004F000009CCDE900B400F0B2F803B0BDE8F08F85
:1005000000200146F9E796230022114600F06AB860
:1005100020F00040C10DC0F3160040F400007F2918
:1005200001DA00207047962903DCC1F19601C8402A
:100530007047963988407047C1F30A5210B5C1F32D
:10054000130140F2FF3341F480119A4201DA002096
:1005500010BD40F233439A42A2F2334203DC5242CE
:10056000FFF7E0FD10BD904010BD00F0004230F0FC
:1005700000400AD0C10D01F56071C0F3160042EAD7
:100580000151C208400711437047002001467047DF
:10059000202A04DB203A00FA02F100207047914043
:1005A000C2F1200320FA03F3194390407047202A38
:1005B00006DBCB17203A41FA02F043EAE07306E08B
:1005C00041FA02F3D040C2F120029140084319469B
:1005D00070470029A8BF7047401C490008BF20F0A1
:1005E0000100704710B4B0FA80FC00FA0CF050EA39
:1005F000010404BF10BC704749B1CCF1200421FABA
:1006000004F411FA0CF118BF012121430843A3EBB4
:100610000C01CB1D4FEA00614FEA102042BF0020C1
:1006200010BC704700EBC35010440029A4BF10BC9D
:100630007047401C490008BF20F0010010BC704703
:1006400010B5141E73F1000408DA401C41F10001DA
:1006500092185B411A4301D120F0010010BD2DE931
:10066000F04D92469B4611B1B1FA81F202E0B0FA28
:1006700080F220329046FFF78BFF04460F4640EA97
:100680000A0041EA0B0153465A46084313D011466B
:1006900053EA010019D0C8F140025046FFF742FD6D
:1006A00005460E46504659464246FFF771FF08433D
:1006B00005D0012004E020463946BDE8F08D002039
:1006C000054346EAE0762C4337430A986305E40A7B
:1006D000A0EB08000022FD0A44EA47540A3002D584
:1006E00000200146E9E7010510196941DDE90845E7
:1006F00000196941BDE8F04DA2E70000064C074D26
:1007000006E0E06840F0010394E8070098471034E1
:10071000AC42F6D3FFF7EEFCFC2800081C290008C9
:10072000014800F007B800000C000020FEE7704709
:100730007047704710B5044600684168890626D5A1
:100740000168890723D5A16AC90603D4A16A41F4C7
:100750000071A1628168C1F34241072910D1E168AB
:1007600071B9416821F020014160A06A20F48070D5
:10077000A062A06AC00403D4A06A40F00100A06295
:100780002046FFF7D6FF21686FF01200086020684E
:10079000416809062ED5016849072BD5A16AC9060B
:1007A00003D4A16A41F40051A1628168C1F302310E
:1007B000072909D04168490515D48168C1F3424130
:1007C000072910D1E16871B9416821F080014160C9
:1007D000A06A20F48050A062A06AC00503D4A06A79
:1007E00040F00100A0622046FFF7A2FF21686FF0F1
:1007F0000C0008602068416849060DD50068C007F4
:100800000AD0A06A40F48030A062204600F005F8CB
:1008100021686FF00100086010BD704731B500F02D
:10082000EDF8044600F0EAF80099001B8842F9D37D
:1008300038BD00002DE9F84FDFF890A100220AF141
:10084000040B144601274FF00F090BF1040E00BFF3
:100850000B6807FA04F52B40AB4274D1DFF870C186
:100860004E68A6EB0C0866452BD00DDC032E34D069
:1008700005DC36B3012E19D0022E2FD11BE0112E2C
:1008800016D0122E2AD119E0B8F5881F19D006DC2F
:10089000B8F5803F15D0B8F5801F1FD111E0B8F52D
:1008A000001F0ED0B8F5041F18D10AE0CA6815E081
:1008B000CA68121D12E0CA6808320FE0CA680C321A
:1008C0000CE08A682AB1012A4FF0080203D0456182
:1008D00004E0042202E0056100E00022FF2B01D8C1
:1008E000064601E000F104064FEA840501D9A5F1AE
:1008F0002005D6F800C009FA05F82CEA080C02FA1F
:1009000005F54CEA050CC6F800C04D68ED0057D55A
:10091000304DAE6946F00106AE61AD6924F00306C4
:1009200005F0010500952C4D06EB050CDCF8085090
:10093000A6074FEA167809FA08F6B543274EB042E3
:1009400002D1002610E03BE0254EB04201D1012645
:100950000AE0244EB04201D1022605E0224EB04208
:1009600001D1032600E0042606FA08F62E43CCF84F
:1009700008604D68DAF80060ED03554601D51E4366
:1009800000E09E432E604D68DBF80060AD035D46DD
:1009900001D51E4300E09E432E604D68DEF80060E6
:1009A000ED02754601D51E4300E09E432E604D6862
:1009B000AD020E4D2E6801D51E4300E09E432E6011
:1009C000641C102CFFF444AFBDE8F88F0004014014
:1009D000000011100010024000000140000801401A
:1009E000000C014000100140001401400C040140C3
:1009F0000AB1016170470904FBE700000148006883
:100A0000704700000400002010B5040008D02068E2
:100A1000C168C943C90705D1C068C043800701D474
:100A2000012010BD607B20B900202073204600F01B
:100A300018F802206073216845F25550086020685C
:100A40004168626821F007011143416020688168B4
:100A5000A2686FF30B0111438160012060730020D5
:100A600010BD7047017B01290FD001210222427382
:100A700003684CF6CC421A6003684AF6AA221A6050
:100A8000417300210173084670470220704700003F
:100A900002480168491C0160704700000400002002
:100AA000074810B5016841F010010160032000F013
:100AB00087F8002000F006F800F016F8002010BDBE
:100AC0000020024010B5044600F0E6F94FF47A71B8
:100AD000B0FBF1F000F026FD00222146501E00F090
:100AE0004FF8002010BD00001D4808B5816941F095
:100AF00001018161806900F001000090032000F095
:100B00005FF8002211466FF00B0000F039F8002268
:100B100011466FF00A0000F033F8002211466FF022
:100B2000090000F02DF800221146501F00F028F8AF
:100B300000221146101F00F023F800221146901EDB
:100B400000F01EF800221146501E00F019F805486A
:100B5000416821F0E06141F00071416008BD000092
:100B6000001002400000014000F01F0201219140EE
:100B70004009800000F1E020C0F80011704700003B
:100B8000F0B40E4B1B680C46C3F30223C3F10705F8
:100B9000042D00D90425191D072901D2002300E0E6
:100BA000DB1E012606FA05F1491E214099409E40B0
:100BB000761E16403143F0BC01F0C7B90CED00E0E1
:100BC000064900F0070208684FF6FF03184040EAA4
:100BD0000220034A10430860704700000CED00E05B
:100BE0000000FA052DE9F84305460078454CC0079A
:100BF00074D0E06940F08050E061E069424E00F05E
:100C000080500090306840F480703060FFF7F6FE4E
:100C1000074604E0FFF7F2FEC01B642833D83068B3
:100C2000C005F7D5206A10F4407051D0A98801F4AE
:100C3000407181424CD0206A0126310491FAA1F220
:100C4000B2FA82F29300314A20F440701344C3F8A0
:100C5000006491FAA1F1B1FA81F102EB8101002364
:100C6000C1F800342062C00732D0FFF7C7FE074644
:100C700041F288394FF0020808E000BFFFF7BEFEDE
:100C8000C11B494502D90320BDE8F88398FAA8F1B1
:100C9000B1FA81F141F040014046B6EB511F01D15C
:100CA00021680BE090FAA0F1B1FA81F141F0400126
:100CB000B0EB511F01D1216A00E0616A98FAA8F0F7
:100CC000B0FA80F000F01F0206FA02F00142D5D01F
:100CD000206A696820F44070084320622878800701
:100CE00005D56068A96820F4404008436060287812
:100CF000C00605D56068E96820F48000084360609C
:100D00000020C1E700100240007000400000424295
:100D10002DE9F047DFF8708105460E46D8F800004F
:100D200000F00700B0420CD2D8F8001021F0070103
:100D30003143C8F80010D8F8000000F00700B042B6
:100D400077D12878514C800705D56068A96820F0D4
:100D5000F000084360602878C00759D06968012016
:100D600001290DD0022929D05FF0020393FAA3F2E2
:100D7000B2FA82F242F02002520904D0226803E063
:100D80004FF40033F2E7626A93FAA3F3B3FA83F302
:100D900003F01F03984002424BD0606820F003002C
:100DA00008436060FFF72AFE6968074641F2883011
:100DB00001290DD00229814617D025E04FF000739C
:100DC000D4E700BFFFF71AFEC11B494501D918E05F
:100DD00081466068C0F381000128F3D118E000BFAC
:100DE000FFF70CFEC11B49450BD86068C0F38100BA
:100DF0000228F5D10CE000BFFFF700FEC11B4945FA
:100E000002D90320BDE8F087606810F00C0FF3D121
:100E1000D8F80010404601F00701B1420BD9016833
:100E200021F0070131430160006800F00700B04283
:100E300001D00120E6E72878400705D56068E96819
:100E400020F4E060084360602878000706D56068F9
:100E5000296920F4605040EAC100606000F052F857
:100E60006168F02292FAA2F201F0F001B2FA82F285
:100E7000D140074A515CC840064908600020FFF78E
:100E800021FE0020BEE700000020024000100240CA
:100E9000E4260008000000200148006870470000B8
:100EA0000000002008480949006849684FF4E062E2
:100EB00092FAA2F201F4E061B2FA82F2D140044A5D
:100EC000515CC84070470000000000200010024044
:100ED000F426000808480949006849684FF4605240
:100EE00092FAA2F201F46051B2FA82F2D140044ABD
:100EF000515CC84070470000000000200010024014
:100F0000F426000810B519A385B00FCB8DE80F00AB
:100F10001AA01B4B006804905A681A4802F00C0192
:100F200004291DD008291BD14FF4701494FAA4F49D
:100F300002F47011B4FA84F4E140D2031DF80110F8
:100F400010D55A684FF4003393FAA3F302F4003239
:100F5000B3FA83F3DA4004AB9A5CB0FBF2F0484397
:100F600005B010BD08484843FAE700000203040535
:100F7000060708090A0B0C0D0E0F101001020000E5
:100F80000010024000127A0000093D002DE9F84FE0
:100F900004460078F74DC0074FF0010625D0686879
:100FA0007704C0F38100012807D06868C0F381008E
:100FB00002281BD16868C00318D597FAA7F0B0FAC9
:100FC00080F040F02000400901D0286800E0686A05
:100FD00097FAA7F1B1FA81F101F01F0106FA01F1C8
:100FE00008425ED0606800287CD05AE06068B0F5A6
:100FF000803F0BD010B1B0F5A02F11D0286820F49D
:1010000080302860286820F4802002E0286840F4BE
:1010100080302860606828B3FFF7F0FC80460BE062
:10102000286840F480202860F0E700BFFFF7E6FC66
:10103000A0EB0800642871D897FAA7F0B0FA80F006
:1010400040F02000400901D0286800E0686A97FA63
:10105000A7F1B1FA81F101F01F0106FA01F108428E
:10106000E4D01EE0FFF7CAFC804605E0FFF7C6FCAF
:10107000A0EB08006428DED897FAA7F0B0FA80F059
:1010800040F02000400901D0286800E0686A97FA23
:10109000A7F1B1FA81F101F01F0106FA01F108424E
:1010A000E4D12078DFF8D08280074FF000094FF0BC
:1010B00002075BD568684FF0F80B10F00C0F07D0F3
:1010C0006868C0F3810002281CD16868C00319D485
:1010D00097FAA7F0B0FA80F040F02000400902D063
:1010E000286801E08BE0686A97FAA7F1B1FA81F10C
:1010F00001F01F0106FA01F108422CD020690128F5
:101100007DD128E0206990B396FAA6F0B0FA80F07D
:1011100048F82060FFF772FC824607E011E100BF4B
:10112000FFF76CFCA0EB0A00022884D897FAA7F01E
:10113000B0FA80F040F02000400901D0286800E0BB
:10114000686A97FAA7F1B1FA81F101F01F0106FA76
:1011500001F10842E4D028689BFAABF26169B2FA67
:1011600082F220F0F80091400843286025E0FFE774
:1011700096FAA6F1B1FA81F148F82190FFF73EFC0A
:10118000824605E0FFF73AFCA0EB0A000228CCD823
:1011900097FAA7F0B0FA80F040F02000400901D0A3
:1011A000286800E0686A97FAA7F1B1FA81F101F0C6
:1011B0001F0106FA01F10842E4D1207800076ED53C
:1011C000A069B8B396FAA6F0B0FA80F008EB8000F8
:1011D000C0F88064FFF712FC824605E0FFF70EFCC2
:1011E000A0EB0A000228A0D897FAA7F0B0FA80F086
:1011F00040F06000B6EB501F02D128680CE062E1BD
:1012000097FAA7F0B0FA80F040F06000B7EB501FFB
:1012100001D1286A00E0686A97FAA7F1B1FA81F172
:1012200001F01F0106FA01F21042D7D00120FFF7AA
:10123000F5FA34E0FFE796FAA6F1B1FA81F108EB8E
:101240008101C1F88094FFF7D9FB824606E000BF18
:10125000FFF7D4FBA0EB0A00022872D897FAA7F098
:10126000B0FA80F040F06000B6EB501F01D1286862
:101270000BE097FAA7F0B0FA80F040F06000B7EB0F
:10128000501F01D1286A00E0686A97FAA7F1B1FA05
:1012900081F101F01F0106FA01F21042D8D1207845
:1012A000400765D5E86940F08050E861E869DFF8FB
:1012B000CCB000F080500090DBF8001041F4807159
:1012C000CBF80010FFF79AFB824605E0FFF796FB8C
:1012D000A0EB0A00642834D8DBF80000C005F5D57F
:1012E000E06801280AD008B1052813D0286A20F048
:1012F00001002862286A20F0040002E0286A40F019
:1013000001002862E06841F2883B90B3FFF776FB6A
:1013100082460BE0286A40F004002862EEE700BF36
:10132000FFF76CFBA0EB0A0159450AD897FAA7F022
:10133000B0FA80F040F04000B6EB501F02D12868B0
:101340000CE0A3E097FAA7F0B0FA80F040F040007C
:10135000B7EB501F01D1286A00E0686A97FAA7F13D
:10136000B1FA81F101F01F0206FA02F10842D7D06A
:1013700031E005E0001002400000424200700040F1
:10138000FFF73CFB824605E0FFF738FBA0EB0A01C4
:1013900059457BD897FAA7F0B0FA80F040F04000AA
:1013A000B6EB501F01D128680BE097FAA7F0B0FA0E
:1013B00080F040F04000B7EB501F01D1286A00E0F8
:1013C000686A97FAA7F1B1FA81F101F01F0206FAF3
:1013D00002F10842D8D1E06980B36968C1F38101A4
:1013E000022970D04FF080714F000228484609D082
:1013F00091FAA1F1B1FA81F148F82100FFF7FEFA64
:10140000044669E08A4691FAA1F1B1FA81F1C14638
:1014100048F82100FFF7F2FA804605E0FFF7EEFA00
:10142000A0EB0800022854D897FAA7F0B0FA80F091
:1014300040F02000400902D0286801E061E0686ABD
:1014400097FAA7F1B1FA81F101F01F0106FA01F153
:101450000842E3D1206AB0F5803F05D16868A168F1
:1014600020F4003008436860D4E908010843696843
:1014700021F47411084368609AFAAAF0B0FA80F077
:1014800049F82060FFF7BAFA044606E021E000BF01
:10149000FFF7B4FA001B02281BD897FAA7F0B0FA9E
:1014A00080F040F02000400901D0286800E0686A20
:1014B00097FAA7F1B1FA81F101F01F0106FA01F1E3
:1014C0000842E5D01DE01EE0FFF798FA001B022855
:1014D00002D90320BDE8F88F97FAA7F0B0FA80F0A0
:1014E00040F02000400901D0286800E0686A97FABF
:1014F000A7F1B1FA81F101F01F0106FA01F10842EA
:10150000E2D10020E6E70120E4E74FF0E0210428E3
:10151000086903D020F004000861704740F004001F
:10152000FAE7704710B5401EB0F1807F01D301206B
:1015300010BD4FF0E02460610F21601700F005FD41
:101540000020A06107202061002010BD10B5FFF72A
:10155000E8FF10BD7047704730B590F83820012A79
:1015600020D0012280F83820022380F83930036827
:101570005C6824F070045C6003685C680D682C4350
:101580005C6003689C6824F080049C6003689C682D
:1015900049680C439C6080F83920002180F838109D
:1015A000084630BD022030BD10B5040003D094F8C9
:1015B000390010B107E0012010BD002084F8380088
:1015C000204600F00DF8022084F83900211D206823
:1015D00000F0CAFD012084F83900002010BD000091
:1015E00008B5154A0168154891420ED1C16941F00C
:1015F0000201C161C069002200F0020000901146A2
:101600001D20FFF7BDFA1D2010E00D4A914211D1B7
:10161000C16941F00401C161C069002200F0040009
:10162000009011461E20FFF7ABFA1E20BDE80840CF
:10163000FFF79ABA08BD0000000400400010024005
:10164000000800400168CA6842F00102CA600068F0
:10165000016841F0010101600020704770B5044647
:1016600090F83800012817D0012584F8385002205E
:1016700084F839002068826822F0770222F47F42E1
:1016800082600868502837D00DDC202859D005DC4E
:1016900088B3102841D151E0022070BD302853D0CA
:1016A00040283AD13FE060282ED070280BD0B0F50A
:1016B000805F03D0B0F5005F2FD110E02068816813
:1016C00021F0070115E0CB68D1E90121206800F085
:1016D0007DFD2168886840F0770088601DE0CB6858
:1016E000D1E90121206800F071FD2068816841F492
:1016F0008041816011E01EE0CA684968206800F0FE
:1017000077FD5021206806E0CA684968206800F02B
:1017100080FD6021206800F063FD84F839500020CE
:1017200084F8380070BDCA684968206800F060FD20
:1017300040212068EFE700212068ECE710212068B5
:10174000E9E720212068E6E730212068E3E77047D9
:1017500070B50446006801694FF00005C943890768
:1017600015D4C168C943890711D4E91E016101205C
:101770002076206880698007204602D0FFF7E7FFC7
:1017800004E000F098F8204600F096F825762068EE
:101790000169C943490717D4C168C943490713D42C
:1017A0006FF004010161022020762068806910F446
:1017B000407F204602D0FFF7CAFF04E000F07BF82C
:1017C000204600F079F8257620680169C9430907A9
:1017D00016D4C168C943090712D46FF0080101612A
:1017E000042020762068C0698007204602D0FFF7D9
:1017F000AEFF04E000F05FF8204600F05DF82576CB
:1018000020680169C943C90617D4C168C943C9061C
:1018100013D46FF010010161082020762068C069A0
:1018200010F4407F204602D0FFF791FF04E000F063
:1018300042F8204600F040F8257620680169C94347
:10184000C90708D1C168C943C90704D1891E01610C
:10185000204600F033F820680169C943090609D41D
:10186000C168C943090605D46FF0800101612046B3
:10187000FFF770FE20680169C943490609D4C168B1
:10188000C943490605D46FF040010161204600F0CC
:1018900057F820680169C94389060BD4C168C94358
:1018A000890607D46FF0200101612046BDE8704031
:1018B000FFF751BE70BD70477047000010B5044679
:1018C0001C4884422CD100F1F8010122B83000F00C
:1018D0002DF918490122F831A1F1800000F026F914
:1018E00015490022012091F8693053B1B1F86630F2
:1018F0005B1C9BB2A1F86630082B02D301F8692F5C
:1019000048700E4991F8693053B1B1F866305B1CEC
:101910009BB2A1F86630082B02D301F8692F4870FA
:1019200004483C30844203D1BDE8104000F0AEBE14
:1019300010BD00003C0000205001002020020020CB
:101940007047704738B5044600680168C26811F0F6
:10195000010F02F4807204D01AB1E16B41F0010171
:10196000E1630168C1F34002416901F0010122B164
:1019700019B1E26B42F00402E2630268C2F3800232
:1019800022B119B1E26B42F00202E2630268C2F3D3
:10199000C00222B119B1E16B41F00801E1630168B5
:1019A000C068C1F3401100F0200019B110B1204609
:1019B00000F042FC20680168C068C1F3C01100F06B
:1019C000800019B110B1204600F042FD216808687E
:1019D000CA68C0F3801002F04002012570B16AB1FC
:1019E000CA68204622F04002CA6094F839103229B1
:1019F00011D080F8395000BF00F08AF9E06B002860
:101A000008D0206801684068009084F8395020466A
:101A1000FFF797FF38BD222180F83910ECE770B549
:101A2000040004D094F83900002510B106E001202C
:101A300070BD84F83850204600F020F8022084F869
:101A400039002068C16821F40051C160204600F0CF
:101A500047FC2068016921F49041016120684169D7
:101A600021F02A0141612068C16841F40051C16040
:101A7000E563012084F83900002070BD70B5274E61
:101A800003680024264902200322264D86B0B34273
:101A90001ED18B6943F480438B618969039201F401
:101AA000804104910102CDE9001069462846FEF705
:101AB000C1FE2815CDE90004694628460294FEF7C8
:101AC000B9FE002211462520FFF75AF8252020E014
:101AD000154EB3421FD1CB6943F40033CB61C969C2
:101AE000039201F4003104910421CDE9001069460C
:101AF0002846FEF79FFE0820CDE9000469462846E7
:101B00000294FEF797FE002211462620FFF738F8D0
:101B10002620FFF729F806B070BD0000003801400C
:101B200000100240000801400044004090F83930A5
:101B3000012B01D0122B2CD139B332B390F83830AD
:101B4000012B26D0012380F8383081628285C2853E
:101B50000021C16390F83920122A18D05FF02202C8
:101B600080F8392080F838100168CA6842F4807221
:101B7000CA6001684A6942F001024A610068C168AE
:101B800041F02001C16000207047012070473222DF
:101B9000E6E702207047000070B50646244800249E
:101BA0000125864226D1234800682349C0B291F816
:101BB0006A20012A0ED091F868304A1C985491F896
:101BC0006800401CC0B281F86800A1F86640012896
:101BD00008D009E0BDE870401549012240311448A1
:101BE000FFF7A4BF81F86950114901224031104824
:101BF000FFF79CFF0E484038864217D10F48006817
:101C0000C1B20F4890F86A20012A0FD090F86830CE
:101C1000421C995490F86810491CC9B280F86810A9
:101C2000A0F86640012901D180F8695070BD00001C
:101C3000F400002004440040200200200438014049
:101C4000500100202DE9F047044690F839009946EC
:101C50000D46012801D0222858D12DB322B394F883
:101C60003800012852D0012684F838600027E76345
:101C700094F8390022281AD05FF0120084F8390055
:101C8000A284E2844FF48058E08C4B46401EE084EE
:101C9000A0684FF0000240454FF08001204613D16C
:101CA00000F009FC08BB04E00120BDE8F087322009
:101CB000E4E728882168C0F308004860206908B17B
:101CC0006D1C08E0AD1C06E000F0F5FB68B921686A
:101CD00015F8010B4860E08C0028D5D14B46002256
:101CE0004021204600F0E7FB08B10320DDE794F82F
:101CF0003900322806D084F8396000BF84F8387083
:101D00000020D2E7222084F83900F7E70220CCE750
:101D10007047FEE7F0B51D4885B0816941F01001BC
:101D20008161816901F010010491816941F0200114
:101D30008161816901F020010491816941F0040110
:101D400081618069124E00F004004FF4C044049099
:101D5000002221463046FEF74BFE0E4F0022C021E6
:101D60003846FEF745FE00940124022569463046B8
:101D700003950194FEF75EFDC020CDE9000469469D
:101D800003953846FEF756FD05B0F0BD0010024041
:101D9000001001400008014010B5134886B01149F9
:101DA000016040F2CF210024C0E901146321C0E9A1
:101DB0000314FFF7F9FB00B1FEE74FF480500090E9
:101DC00069460948FFF74AFC00B1FEE7049404A9FC
:101DD00005480594FFF7C0FB002800D0FEE706B0D9
:101DE00010BD0000000400403C00002010B5134866
:101DF00086B01149016041F61F410024C0E9011479
:101E000043F69821C0E90314FFF7CEFB00B1FEE7CB
:101E10004FF48050009069460848FFF71FFC00B15E
:101E2000FEE7049404A905480594FFF795FB0028F4
:101E300000D0FEE706B010BD00080040780000208A
:101E4000FEE7000070B5264D0120294685F86B009D
:101E5000032081F86C0001F5D0702B4601880A0A36
:101E600083F86D201A4682F86E1041880A0A83F8BA
:101E70006F201A4682F8701081880A0A83F8712050
:101E80001A4682F87210C1880A0A83F873201A462B
:101E900082F8741001890A0A83F875201A4682F8BC
:101EA00076104089010A82F87710114681F878008F
:101EB0000E2102F16B0000F063FB2A46010A82F852
:101EC00079101146102681F87A000024281990F81C
:101ED0006B0000F04BF8641CA4B2B442F6D370BDA2
:101EE000500100207047000010B5164C94F86A00AD
:101EF000002825D094F86810601C891E00F040FB73
:101F000094F86810621E80B2635C895C03EB012167
:101F100089B2884210D1607801280DD1A0780728B5
:101F20000AD2DFE800F00909090409090700FFF7F0
:101F300089FF01E0FFF7D6FF002004F8680FA070CA
:101F400010BD00005001002070470907090E00284D
:101F500006DA00F00F0000F1E02080F8141D704751
:101F600000F1E02080F800147047704701B50023AD
:101F7000012269460348FFF765FE034801684906E8
:101F8000FCD508BDB40000200038014070470000B7
:101F900070B5314C94F86A0000285BD094F8681052
:101FA000601C891E00F0ECFA94F86810621E80B282
:101FB000635C895C03EB012189B2884246D1607879
:101FC000012843D16079217902F1D10500EB01208C
:101FD0002880E079A17900EB01210A20B1FBF0F122
:101FE0006980617A227A01EB0221B1FBF0F0A880CE
:101FF000E07AA17A00EB0120E880607B217B00EB96
:102000000120FEF780FA154E3146FEF725F91449F6
:10201000FEF7F0F81349FEF795F8FEF779FA2881F4
:10202000E07BA17B00EB0120FEF76DFA3146FEF765
:1020300013F9FEF79AFA0C4A0C4BFEF7F2F90C4A28
:102040000C4BFEF747F9FEF777FA6881002004F899
:10205000680FA07070BD00002002002000FF7F47C5
:102060000000FA420000C0C0D7A3703D0AF76540E7
:10207000CDCCCCCCCC6C47C010B5FEF709FDBDE88B
:102080001040FFF763BA30B593B0092001210090EA
:102090004FF48030002504910691CDE9010502241A
:1020A000CDE907404FF4E01009906846FEF76EFF57
:1020B00000B1FEE70AA90F2081E831004FF48060EB
:1020C000CDE90D0502210AA8FEF722FE00B1FEE7C8
:1020D0004FF4004011900F940FA8FEF783FD00B15C
:1020E000FEE7FEF7D9FE4FF47A71B0FBF1F0FFF78F
:1020F00019FA0420FFF709FA00221146501EFEF7D4
:102100003FFD13B030BD00000D48016841F00101F2
:10211000016041680B4A1140416001680A4A114060
:102120000160016821F480210160416821F4FE0111
:1021300041604FF41F0181600449C003086070478B
:10214000001002400000FFF8FFFFF6FE08ED00E07F
:102150000148FFF7FDBA00003C0000200148FFF7EE
:10216000F7BA000078000020F0B50268144B154C57
:10217000154D4FF08047984205D0B84203D0A04299
:1021800001D0A84203D122F070064A683243984237
:1021900005D0B84203D0A04201D0A84203D122F416
:1021A0004074CA68224302608A68C2620A68826216
:1021B000984201D10969016301214161F0BD00002C
:1021C000002C0140000400400008004010B5846865
:1021D00042EA032224F47F440A432243826010BD72
:1021E000826822F070020A4342F007018160704762
:1021F00010B5036A046A24F001040462846924F0BF
:10220000F00444EA021423F00A020A4384610262E1
:1022100010BD10B5036A23F0100303628369046ADA
:1022200023F4704343EA023224F0A00343EA01118D
:102230008261016210BD000010B590F839102229AA
:1022400003D0322901D0022010BD8168B1F5805F32
:1022500011D00169002901681FD0496801F07F038E
:10226000816A4A1C82620B70C18D491E0904090CE7
:10227000C18518D030E00269816A002A026852687C
:1022800005D0D2B20A80816A491C8162ECE7C2F3B0
:1022900008020A80816A891CF7E74A68816A4B1C38
:1022A00083620A70E0E70168CA6822F02002CA600F
:1022B00090F83910322911D00168CA6822F480726E
:1022C000CA6001684A6922F001024A615FF00101B7
:1022D00080F83910FFF760FC002010BD1221F7E7ED
:1022E0002DE9F041044600680169E26821F440519B
:1022F000114301612169A0680843616908432168AD
:10230000CA6841F20C639A430243CA60206841697B
:10231000A26921F44071114341614C492068642550
:10232000322688423CD1FEF7D5FD00EBC00101EB1F
:10233000001061688900B0FBF1F7FEF7CBFD00EB00
:10234000C00101EB00106168B0468900B0FBF1F0FC
:10235000B0FBF5F06FF01801484307EB800106EB86
:102360000110B0FBF5F000F0F006FEF7B3FD00EB56
:10237000C00101EB001061688900B0FBF1F0B0FB17
:10238000F5F006EB0016FEF7A5FD00EBC00101EB32
:10239000001061688900B0FBF1F7FEF79BFD3BE0A0
:1023A000FEF780FD00EBC00101EB001061688900C1
:1023B000B0FBF1F7FEF776FD00EBC00101EB00107A
:1023C0006168B0468900B0FBF1F0B0FBF5F06FF04A
:1023D0001801484307EB800106EB0110B0FBF5F054
:1023E00000F0F006FEF75EFD00EBC00101EB00100F
:1023F00061688900B0FBF1F0B0FBF5F006EB001668
:10240000FEF750FD00EBC00101EB00106168890090
:10241000B0FBF1F7FEF746FD00EBC00101EB001049
:1024200061688900B0FBF1F0B0FBF5F06FF01801C6
:10243000484307EB800108EB0110B0FBF5F0216881
:1024400000F00F0030448860BDE8F08100380140A2
:1024500090F83910122903D0322901D00220704798
:102460008168B1F5805F016A0BD04A1C0262026884
:1024700009785160C18C491E0904090CC1840ED031
:1024800017E009880268C1F3080151600169002959
:10249000016A02D0491C0162ECE7891CFBE7016874
:1024A000CA6822F08002CA600068C16841F0400139
:1024B000C160002070472DE9F0471D4690460E464A
:1024C0000446FEF79BFA07465FEA08004FF0000952
:1024D0004FF0010808D030E0681C05D095B1FEF738
:1024E0008DFAC01BA8420DD82068006836EA0000AB
:1024F000F2D127E0681C20D025B1FEF77FFAC01B7F
:10250000A8421AD92068C16821F08001C160206802
:10251000C16821F02001C1602068C16821F4807188
:10252000C1602068416921F00101416184F839806E
:1025300084F838900320BDE8F0872068006836EA08
:102540000000D7D00020F6E70148FFF7FBB90000F4
:10255000B40000200148FFF7F5B90000F4000020A6
:10256000FEE702E008C8121F08C1002AFAD170472E
:102570007047002001E001C1121F002AFBD1704703
:1025800070B5094DFF22134605F5807606E000BFC1
:1025900010F8014B54402A5D5A40335D491E89B200
:1025A000F6D243EA022070BDFC26000810B50446AE
:1025B0000420FEF7AAFF0148046010BD08000020B7
:1025C000FEF76EFAFFF75FFD4820FFF7EFFFFFF71A
:1025D000A1FBFFF7E1FBFFF709FC2448224D042192
:1025E000C0E900514FF4FA618160FEF70DFA00B1C5
:1025F000FEE71E48FEF736FA1E481D494FF41656F0
:1026000000240160C0E901640C27C460C0E90447EC
:102610008461C461FFF703FA00B1FEE71748164969
:102620000160C0E90164C460C0E904478461C46119
:10263000FFF7F5F900B1FEE71148FFF703F811487D
:10264000FFF700F8012210490C48FFF76FFA01224A
:102650000D490848FFF76AFA4AF6AA24FFF798FCE2
:10266000FFF742FC2C60F9E70030004040010020F9
:1026700000380140B400002000440040F400002075
:102680003C000020780000203401002010B501201B
:1026900000F018F8032000F015F8002000F012F800
:1026A000002000F00FF8002000F00CF8062000F0E9
:1026B00009F8C52000F006F8BDE81040C82000F079
:1026C00001B8000001B50023012269460348FFF765
:1026D000B9FA034801684906FCD508BDF40000209A
:1026E000004400400000000000000000010203045C
:1026F00006070809000000000102030400C1814030
:1027000001C0804101C0804100C1814001C08041C1
:1027100000C1814000C1814001C0804101C08041B1
:1027200000C1814000C1814001C0804100C18140A1
:1027300001C0804101C0804100C1814001C0804191
:1027400000C1814000C1814001C0804100C1814081
:1027500001C0804101C0804100C1814000C1814071
:1027600001C0804101C0804100C1814001C0804161
:1027700000C1814000C1814001C0804101C0804151
:1027800000C1814000C1814001C0804100C1814041
:1027900001C0804101C0804100C1814000C1814031
:1027A00001C0804101C0804100C1814001C0804121
:1027B00000C1814000C1814001C0804100C1814011
:1027C00001C0804101C0804100C1814001C0804101
:1027D00000C1814000C1814001C0804101C08041F1
:1027E00000C1814000C1814001C0804100C18140E1
:1027F00001C0804101C0804100C1814000C0C101D1
:10280000C30302C2C60607C705C5C404CC0C0DCD60
:102810000FCFCE0E0ACACB0BC90908C8D81819D9D0
:102820001BDBDA1A1EDEDF1FDD1D1CDC14D4D51500
:10283000D71716D6D21213D311D1D010F03031F1F0
:1028400033F3F23236F6F737F53534F43CFCFD3D20
:10285000FF3F3EFEFA3A3BFB39F9F83828E8E92910
:10286000EB2B2AEAEE2E2FEF2DEDEC2CE42425E5C0
:1028700027E7E62622E2E323E12120E0A06061A130
:1028800063A3A26266A6A767A56564A46CACAD6DE0
:10289000AF6F6EAEAA6A6BAB69A9A86878B8B97950
:1028A000BB7B7ABABE7E7FBF7DBDBC7CB47475B580
:1028B00077B7B67672B2B373B17170B05090915170
:1028C0009353529296565797559594549C5C5D9DA0
:1028D0005F9F9E5E5A9A9B5B995958988848498990
:1028E0004B8B8A4A4E8E8F4F8D4D4C8C4484854540
:1028F0008747468682424383418180401C290008E5
:10290000000000200C0000006225000828290008B3
:102910000C000020F40600007225000800A24A0402
:082920000000000000000000AF
:04000005080000ED02
:00000001FF
